:03000000020307F1
:0C030700787FE4F6D8FD75813802034EC3
:0800030012000E12043C80FB08
:0C000E001204B01204C912001E0203D735
:10043C007B007A00792112040CEC4D4E4F60137B3B
:10044C00007A0079217FE87E037D007C001204672E
:0A045C000520E51E64017002D29035
:010466002273
:0904B0004391015392FEC2902217
:0C049D00011A01010E01010F08011908ED
:0704C200439A01539BFE2247
:0704C900539AFE439B012240
:100266000513E51364C87008F513751B01851A0E8E
:10027600E51B70030203060512C3E512941474808D
:1002860094805003C28022D3E50F9400748094803A
:100296004059E50E30E725050AAF0A7E00EF9409BE
:1002A600748094805003D28022C3EF940AEE648057
:1002B60094805003C28022E4F50A80260509AF091E
:1002C6007E00C3EF9405748094805003D28022C3CD
:1002D600EF940AEE648094805003C28022E4F5090C
:1002E600F509E50E25E0F50E150F220517C280E586
:1002F600176418700BD280750F08F51BF512F517E9
:0103060022D4
:10015B00A280E433F511FF7E007006E50C700205FA
:10016B0015EF64014E7046AF15FED3740F9F74806C
:10017B00F898501AC374169F7480984011E4F50BCD
:10018B00F515F518F508751908750C01801FD37452
:10019B00169FEE6480F8748098E4500FF50BF515FC
:1001AB00F518F508751908F50C8002F515E50C70B6
:1001BB0003020265D3E51994007480948050030206
:1001CB000254E51164017005751F010518E51170E6
:1001DB0054E51F6401704EE50825E0F508E4F51FB2
:1001EB00050BAF18FEC3EF9407748094804016D3B1
:1001FB00EF940A74809480500CE4F50BF5184308C7
:10020B000115198020C3EF9401EE64809480401592
:10021B00D3EF9406EE64809480500AE4F50BF51846
:10022B005308FE1519D3E518941074809480500A66
:10023B00E50B9408748094804020E4F50BF518F5D9
:10024B0015F50CF50875190822E4F50BF518F515DD
:0B025B00F50C85081E751908F514222B
:1003D700758E07438901758A88758CFAC28CD2A9F4
:1003E700D28C438920758B10758D10C28ED2ABD2FB
:1003F7008EE4F5C9F5C875CB4475CA80C2CAD2ADBB
:05040700D2CAD2AF22B1
:03000B000203935A
:10039300C0E0C0F0C083C082C0D075D000C000C030
:1003A30001C002C003C004C005C006C007758A8827
:1003B300758CFA12048312015BD007D006D005D0E6
:1003C30004D003D002D001D000D0D0D082D083D0CB
:0403D300F0D0E03254
:03001B0002001AC6
:01001A0032B3
:03002B00020028A8
:03002800C2CF3212
:0604A90004310000000018
:0A001E00E4F534F533F532F5312234
:10048300AF34AE33AD32AC31EF2401F534E43EF595
:0A04930033E43DF532E43CF531227C
:0904B900AF34AE33AD32AC312298
:100467008F388E378D368C351204B912006FAF383E
:0C047700AE37AD36AC35900004020089B1
:10040C008B358A36893790000412003F1200ADC339
:10041C00E5349BFBE5339AFAE53299F9E53198F826
:10042C00C312002EE440047F018001FFFEFDFC227C
:10031300020003E493A3F8E493A34003F68001F2FD
:1003230008DFF48029E493A3F85407240CC8C333EB
:10033300C4540F4420C8834004F456800146F6DFBA
:10034300E4800B010204081020408090049DE47EA9
:10035300019360BCA3FF543F30E509541FFEE493AF
:10036300A360010ECF54C025E060A840B8E493A376
:10037300FAE493A3F8E493A3C8C582C8CAC583CAA1
:10038300F0A3C8C582C8CAC583CADFE9DEE780BE59
:0104AF00004C
:10002E00EB9FF5F0EA9E42F0E99D42F0E89C45F028
:01003E00229F
:10003F00BB010DE58229F582E5833AF5830200D9EC
:10004F005007E92582F80200CDBBFE07E92582F8AB
:10005F000200E5E58229F582E5833AF5830200F196
:10006F00BB010789828A830201435005E9F8020127
:0A007F0037BBFE05E9F802014F222D
:10008900BB010DE58229F582E5833AF58302014337
:100099005007E92582F8020137BBFE07E92582F8F6
:0400A90002014F22DF
:1000AD00BB010789828A8302010E5005E9F802011E
:1000BD0001BBFE05E9F802011A89828A8302012734
:0C00CD00E6FC08E6FD08E6FE08E6FF225F
:0C00D900E0FCA3E0FDA3E0FEA3E0FF229A
:0C00E500E2FC08E2FD08E2FE08E2FF2257
:1000F100E493FC740193FD740293FE740393FF2255
:0D010100E6FB08E6F908E6FA08E6CBF8226E
:0C010E00E0F8A3E0F9A3E0FAA3E0FB2274
:0D011A00E2FB08E2F908E2FA08E2CBF82265
:10012700E493F8740193F9740293FA740393FB222E
:0C013700ECF608EDF608EEF608EFF622F4
:0C014300ECF0A3EDF0A3EEF0A3EFF0222F
:0C014F00ECF208EDF208EEF208EFF222EC
:00000001FF
