:0300000002028A6F
:0C028A00787FE4F6D8FD75813E0202D1B9
:0800030012052A12031680FB0E
:10052A00751508E4F51212001E12056412057212FE
:05053A00000E02041494
:10031600AFA07E00A2A1E433FD12053FEF6035E5F4
:1003260034701D75340175350112055D7512027B39
:10033600007A0079247F907E017D007C001204D92A
:100346007B007A0079241204A9EC4D4E4F601012FE
:100356000564800BE5346007E4F534F535F512E500
:100366001624E07013E535600FE4F5350522E52225
:0803760030E003D29022C29096
:01037E00225C
:09001E004391015392FEC29022AD
:07055D00439A01539BFE22AB
:07056400539AFE439B0122A4
:100449000511E51170020510C39409E510940050D7
:1004590003D28022C3E511940AE51094005003C227
:100469008022E4F510F511E51325E0F513151522A1
:10047900050FE50F7002050EC39405E50E940050B3
:1004890003D28022C3E50F940AE50E94005003C2FB
:100499008022E4F50EF50FE51325E0F51315152275
:10037F00E5146049050BE50B7002050AC39414E5FB
:10038F000A94005003C28022D3E515940074809420
:10039F0080400BE51330E703020449020479050D91
:1003AF00E50D7002050CC2806418450C700FD280E9
:0E03BF00F50CF50DF50AF50BF5147515082271
:1004F5000509E5097002050864C84508700AF5088C
:0B050500F50975140185121302037F35
:10002E00A280E433F517700CE51A70080521E5215E
:10003E0070020520E517604FC3E521940FE520946B
:10004E0000401FD3E5219416E52094005014E4F5EA
:10005E001CF51DF51EF51FF520F521F519751A0174
:10006E00801CD3E5219416E5209400E44015F51C80
:10007E00F51DF51EF51FF520F521F519F51A751864
:10008E00088004F520F521E51A700302015CD3E522
:10009E00189400748094805003020147E517600B9A
:1000AE00751B01051DE51D7002051CE51760030299
:1000BE00015CE51B700302015CE4F51BE51925E00C
:1000CE00F519051FE51F7002051EC3E51D9407E512
:1000DE001C94004019D3E51D940AE51C9400500EA3
:1000EE00E4F51CF51DF51EF51F4319011518C3E5A2
:1000FE001D9401E51C94004019D3E51D9406E51CE2
:10010E009400500EE4F51CF51DF51EF51F5319FE57
:10011E001518D3E51D9410E51C94004031D3E51F4E
:10012E009408E51E94004026E4F51CF51DF51EF519
:10013E001FF520F521F5198010E4F51CF51DF51EAF
:0F014E00F51FF520F521851916F51A75180822E9
:10041400758E07438901758A88758CFAC28CD2A9B6
:10042400D28C438920758B10758D10C28ED2ABD2BD
:100434008EE4F5C9F5C875CB4475CA80C2CAD2AD7D
:05044400D2CAD2AF2274
:03000B000203CD20
:1003CD00C0E0C0F0C083C082C0D075D000C000C0F6
:1003DD0001C002C003C004C005C006C007758A88ED
:1003ED00758CFA1205101204F512002ED007D006E6
:1003FD00D005D004D003D002D001D000D0D0D0820F
:07040D00D083D0F0D0E032F3
:03001B00020027B9
:0100270032A6
:03002B00020018B8
:03001800C2CF3222
:06056B0004360000000050
:0A000E00E4F539F538F537F5362230
:10051000AF39AE38AD37AC36EF2401F539E43EF5EE
:0A05200038E43DF537E43CF53622DF
:09055400AF39AE38AD37AC3622E8
:1004D9008F3D8E3C8D3B8C3A12055412019EAF3DE7
:0C04E900AE3CAD3BAC3A9000040201B800
:0605790012055402019E70
:1004A9008B3A8A3B893C90000412016E1201DCC32D
:1004B900E5399BFBE5389AFAE53799F9E53698F875
:1004C900C312015DE440047F018001FFFEFDFC22AF
:0705720053A1FD43A2022288
:10053F00ACA0ECB5070AE4B50606ED70037F012207
:05054F00E4F53EFF226F
:10029600020003E493A3F8E493A34003F68001F27B
:1002A60008DFF48029E493A3F85407240CC8C33369
:1002B600C4540F4420C8834004F456800146F6DF38
:1002C600E4800B010204081020408090056BE47E58
:1002D600019360BCA3FF543F30E509541FFEE4932D
:1002E600A360010ECF54C025E060A840B8E493A3F4
:1002F600FAE493A3F8E493A3C8C582C8CAC583CA1F
:10030600F0A3C8C582C8CAC583CADFE9DEE780BED6
:010571000089
:10015D00EB9FF5F0EA9E42F0E99D42F0E89C45F0F8
:01016D00226F
:10016E00BB010DE58229F582E5833AF5830202088B
:10017E005007E92582F80201FCBBFE07E92582F84B
:10018E00020214E58229F582E5833AF58302022004
:10019E00BB010789828A830202725005E9F80202C6
:0A01AE0066BBFE05E9F802027E229E
:1001B800BB010DE58229F582E5833AF583020272D7
:1001C8005007E92582F8020266BBFE07E92582F896
:0401D80002027E227F
:1001DC00BB010789828A8302023D5005E9F80202BD
:1001EC0030BBFE05E9F802024989828A8302025675
:0C01FC00E6FC08E6FD08E6FE08E6FF222F
:0C020800E0FCA3E0FDA3E0FEA3E0FF2269
:0C021400E2FC08E2FD08E2FE08E2FF2226
:10022000E493FC740193FD740293FE740393FF2224
:0D023000E6FB08E6F908E6FA08E6CBF8223E
:0C023D00E0F8A3E0F9A3E0FAA3E0FB2244
:0D024900E2FB08E2F908E2FA08E2CBF82235
:10025600E493F8740193F9740293FA740393FB22FE
:0C026600ECF608EDF608EEF608EFF622C4
:0C027200ECF0A3EDF0A3EEF0A3EFF022FF
:0C027E00ECF208EDF208EEF208EFF222BC
:00000001FF
