:0300000002028A6F
:0C028A00787FE4F6D8FD75813C0202D1BB
:0800030012053912031680FBFF
:10053900751508E4F51212001E12055E12056C12FB
:05054900000E02040D8C
:100316007B007A0079231204A2EC4D4E4F60137BCA
:10032600007A0079237FF47E017D007C001204D2DE
:100336000522AFA07E00A2A1E433FD120523EF60E3
:100346000FE53370147533011205577512018009D4
:10035600E5336005E4F512F533E51664017006D25F
:100366009075340122C290E5346006E4F534120536
:010376005E28
:010377002263
:09001E004391015392FEC29022AD
:07055700439A01539BFE22B1
:07055E00539AFE439B0122AA
:100442000511E51170020510C39409E510940050DE
:1004520003D28022C3E511940AE51094005003C22E
:100462008022E4F510F511E51325E0F513151522A8
:10047200050FE50F7002050EC39405E50E940050BA
:1004820003D28022C3E50F940AE50E94005003C202
:100492008022E4F50EF50FE51325E0F5131515227C
:10037800E5146049050BE50B7002050AC39414E502
:100388000A94005003C28022D3E515940074809427
:1003980080400BE51330E703020442020472050DA6
:1003A800E50D7002050CC2806418450C700FD280F0
:0E03B800F50CF50DF50AF50BF5147515082278
:1004EE000509E5097002050864C84508700AF50893
:0B04FE00F50975140185121302037844
:10002E00A280E433F517700CE51A70080521E5215E
:10003E0070020520E517604FC3E521940FE520946B
:10004E0000401FD3E5219416E52094005014E4F5EA
:10005E001CF51DF51EF51FF520F521F519751A0174
:10006E00801CD3E5219416E5209400E44015F51C80
:10007E00F51DF51EF51FF520F521F519F51A751864
:10008E00088004F520F521E51A700302015CD3E522
:10009E00189400748094805003020147E517600B9A
:1000AE00751B01051DE51D7002051CE51760030299
:1000BE00015CE51B700302015CE4F51BE51925E00C
:1000CE00F519051FE51F7002051EC3E51D9407E512
:1000DE001C94004019D3E51D940AE51C9400500EA3
:1000EE00E4F51CF51DF51EF51F4319011518C3E5A2
:1000FE001D9401E51C94004019D3E51D9406E51CE2
:10010E009400500EE4F51CF51DF51EF51F5319FE57
:10011E001518D3E51D9410E51C94004031D3E51F4E
:10012E009408E51E94004026E4F51CF51DF51EF519
:10013E001FF520F521F5198010E4F51CF51DF51EAF
:0F014E00F51FF520F521851916F51A75180822E9
:10040D00758E07438901758A88758CFAC28CD2A9BD
:10041D00D28C438920758B10758D10C28ED2ABD2C4
:10042D008EE4F5C9F5C875CB4475CA80C2CAD2AD84
:05043D00D2CAD2AF227B
:03000B000203C627
:1003C600C0E0C0F0C083C082C0D075D000C000C0FD
:1003D60001C002C003C004C005C006C007758A88F4
:1003E600758CFA1205091204EE12002ED007D006FB
:1003F600D005D004D003D002D001D000D0D0D08216
:07040600D083D0F0D0E032FA
:03001B00020027B9
:0100270032A6
:03002B00020018B8
:03001800C2CF3222
:0605650004350000000057
:0A000E00E4F538F537F536F5352234
:10050900AF38AE37AD36AC35EF2401F538E43EF5FA
:0A05190037E43DF536E43CF53522E9
:09054E00AF38AE37AD36AC3522F2
:1004D2008F3C8E3B8D3A8C3912054E12019EAF3CF9
:0C04E200AE3BAD3AAC399000040201B80A
:1004A2008B398A3A893B90000412016E1201DCC337
:1004B200E5389BFBE5379AFAE53699F9E53598F880
:1004C200C312015DE440047F018001FFFEFDFC22B6
:07056C0053A1FD43A202228E
:10052300ACA0ECB5070DE4B50609ED70037F01221D
:060533007F00227F002280
:10029600020003E493A3F8E493A34003F68001F27B
:1002A60008DFF48029E493A3F85407240CC8C33369
:1002B600C4540F4420C8834004F456800146F6DF38
:1002C600E4800B0102040810204080900565E47E5E
:1002D600019360BCA3FF543F30E509541FFEE4932D
:1002E600A360010ECF54C025E060A840B8E493A3F4
:1002F600FAE493A3F8E493A3C8C582C8CAC583CA1F
:10030600F0A3C8C582C8CAC583CADFE9DEE780BED6
:01056B00008F
:10015D00EB9FF5F0EA9E42F0E99D42F0E89C45F0F8
:01016D00226F
:10016E00BB010DE58229F582E5833AF5830202088B
:10017E005007E92582F80201FCBBFE07E92582F84B
:10018E00020214E58229F582E5833AF58302022004
:10019E00BB010789828A830202725005E9F80202C6
:0A01AE0066BBFE05E9F802027E229E
:1001B800BB010DE58229F582E5833AF583020272D7
:1001C8005007E92582F8020266BBFE07E92582F896
:0401D80002027E227F
:1001DC00BB010789828A8302023D5005E9F80202BD
:1001EC0030BBFE05E9F802024989828A8302025675
:0C01FC00E6FC08E6FD08E6FE08E6FF222F
:0C020800E0FCA3E0FDA3E0FEA3E0FF2269
:0C021400E2FC08E2FD08E2FE08E2FF2226
:10022000E493FC740193FD740293FE740393FF2224
:0D023000E6FB08E6F908E6FA08E6CBF8223E
:0C023D00E0F8A3E0F9A3E0FAA3E0FB2244
:0D024900E2FB08E2F908E2FA08E2CBF82235
:10025600E493F8740193F9740293FA740393FB22FE
:0C026600ECF608EDF608EEF608EFF622C4
:0C027200ECF0A3EDF0A3EEF0A3EFF022FF
:0C027E00ECF208EDF208EEF208EFF222BC
:00000001FF
